:10105D00758AF5758CFFD28C308DFDC28CC28D22B8
:0810A600D29712105DC29722DF
:09107900C290C291C292C29322FE
:09108200C290D291C292D29322D5
:09108B00D290C291D292C29322CC
:09109400C290D291D292C29322C3
:09109D00D290C291C292D29322BA
:0810AE00758921C28DC28C225C
:100EC8001210AE758DFD759850D28EC298C29912C7
:100ED80010A63095FDD28C309503308DFAC28CE483
:100EE800F518F5177516C07515C0FFFE7D207C41F5
:100EF800120DB17B807A5F791178471208008F0F45
:100F08008E0E8D0D8C0CAF8CEFAD8AFCEC120A2482
:100F18008F0B8E0A8D098C08AF0FAE0EAD0DAC0C81
:100F2800AB0BAA0AA909A808120800E4FBFAF97889
:100F3800401209098F0B8E0A8D098C0812105D303A
:100F480098FDC298859910E510B4461CE4FFFE7D13
:100F5800207C41AB0BAA0AA909A8081209A66008B7
:100F68004006121082020ED7E510B4420612108B0A
:100F7800020ED7E510B4521CE4FFFE7D207C41AB85
:100F88000BAA0AA909A8081209A6600840061210A7
:100F980094020ED7E510B44C1CE4FFFE7D207C4182
:100FA800AB0BAA0AA909A8081209A66008400612EC
:0B0FB800109D020ED7121079020ED718
:10080000EC4D6011E8497017ED33EC3304600DE4F2
:10081000FCFFFEFD22E933E8330470F8020A92126D
:100820000A5D58046009E4CC24815006285009026E
:100830000A9C284003020A99C0E0EB4A7044B98040
:1008400006D0E0FB020A88EF4E701CBD8008EBFF6B
:10085000EAFEE9FD80EBE98DF0A4FEE5F00208E98F
:10086000E9CDF9EAFEEBFFEF89F0A4FCE5F0CE89D3
:10087000F0A42EFFE435F0CD89F0A42DFEE435F090
:100880008067EF4E7005BD80D780C3EF8BF0A4ACBE
:10089000F0EE8BF0A42CFCE435F0F8EF8AF0A42CF9
:1008A000E5F038FCE433CB8DF0A42CFCE5F03BF80C
:1008B000EE8AF0A42CFCE5F038F8E433CF89F0A4FC
:1008C0002CFCE5F038CF3400CE89F0A42FFFE5F002
:1008D0003EFEE433C98DF0A42EFEE5F039CD8AF05A
:1008E000A42FFFE5F03EFEE43DFD33D0E0FB5007D2
:1008F0000BBB000F020A9CEC2CFCEF33FFEE33FE27
:06090000ED33FD020A7454
:10090600020A9CEC5D046005E859047003020A9231
:10091600120A5D580460F6EC4860F2EC7004FDFEC5
:10092600FF22C860DB2481C85009C39860025006C4
:10093600020A999850CAF582E9294B4A7005AB829A
:10094600020A8875F0007C1A7880C3EF9BEE9AED58
:1009560099400DC3EF9BFFEE9AFEED99FDE842F03C
:10096600DC23ACF0D0E0FFD0E0FED0E0FDAB82208F
:10097600E7101BEB60BAEC2CFCEF33FFEE33FEED19
:1009860033FD020A74E803F830E705C0F075F0009D
:10099600EF2FFFEE33FEED33FD40B830E7C280AAFD
:1009A60074F8CC6480CCC86480C8F58204604FC3F8
:1009B600EB9FF5F0EA9E42F0E99D42F0E89C45F097
:1009C600603C501DE5825FFFE582D313CB5BCBF421
:1009D6002B5582FB50280ABA002409B9002008804A
:1009E6001DE5825BFBE582D313CF5FCFF4C3132FE4
:1009F6005582FF50090EBE00050DBD00010CC3EB6C
:100A06009FF5F0EA9E42F0E99D42F0E89C45F060D1
:090A160007CC4820E701B3EC22F3
:100A1F0075F020800E75F010800575F0087D007E52
:100A2F00007F003392D530D503120C4EEC334010BB
:100A3F00EF33FFEE33FEED33FDEC33FCD5F0ED225B
:0E0A4F00E5F0247EA2D513CC92E7CDCEFF2297
:100DB1008F148E138D128C11E4FFFE7D807C3FAB6E
:100DC10014AA13A912A8111209A67009AF14AE131F
:100DD100AD12AC1122AF14AE13AD12AC11120AA7B1
:100DE100FBAF18AE17AD16AC15120AA7FFBF01086D
:100DF100E4FFFE7D807C3F22EF64046022EB64040B
:100E0100601DBB0127E4FFFEFDFCAB18AA17A91664
:100E1100A8151209A660084006E4FFFEFDFC227435
:100E2100FFF518F517F516F515020EBFE4F519F5DE
:100E31001AFFFEFDFCAB14AA13A912A8111209A6F0
:100E4100504BAF18AE17AD16AC15120BCA8E198FD9
:100E51001AAC19AD1AEC120A24C8ECC8C9EDC9CAFA
:100E6100EECACBEFCBAF18AE17AD16AC15120AC454
:100E7100E4FBFAF9F81209A670A5AF14AE13AD128E
:100E8100AC11120BB98F148E138D128C11AF14AEDD
:100E910013AD12AC11120CB0AB18AA17A916A815F4
:100EA100120800120FFB8F188E178D168C15E51A7C
:100EB10030E00B120BB98F188E178D168C15AF18E9
:070EC100AE17AD16AC1522BF
:100A5D00E9D2E7C933E833F892D5EDD2E7CD33ECDF
:070A6D0033FC5002B2D52258
:100A7400EC30E7100FBF000C0EBE00080DBD0004E3
:100A84000BEB6014A2D5EB13FCED92E7FD2274FF8F
:100A9400FCFDFEFF22E480F8A2D574FF13FC7D80E8
:030AA400E480EFFC
:100AA700ED33EC33601004700FED547F7005740262
:0A0AB70092E0227404220422E422DB
:100AC100020A92E86480F8E933E83360110460F0C7
:100AD100ED33EC337009E8FCE9FDEAFEEBFF22049B
:100AE10060DED3EB9FEA9EE99DE8C2E78CF0C2F796
:100AF10095F0400CE8CCF8E9CDF9EACEFAEBCFFB62
:100B0100120A5D85D0F05804700320D5B3E8047053
:100B1100075002B2D5020A9C92D5EC0460F7E4CCEE
:100B2100C0E0C398F8603B94186008400DD0E0FB2A
:100B3100020A74E4FBFAC9FC8028E830E406E4C93F
:100B4100FBE4CAFCE830E305E4C9CACBFCE854077E
:100B51006010F8C3E913F9EA13FAEB13FBEC13FC89
:100B6100D8F130F52FC3E49CFCEF9BFFEE9AFEED2C
:100B710099FDD0E0FBEF4E4D4C701222DB03020ACF
:100B810099EC2CFCEF33FFEE33FEED33FDED30E756
:100B9100EB020A74EF2BFFEE3AFEED39FDD0E0FBDC
:100BA10050130BBB0003020A9CED13FDEE13FEEF85
:080BB10013FFEC13FC020A74AF
:100BB900ED33EC33600A047003BD8004ECB2E7FC4A
:010BC9002209
:100BCA00EDD2E7CD33EC3392D524814006E4FFFE23
:100BDA00FDFC22FCE4CFCECDCC24E0501174FF8082
:100BEA00EDC3CC13CCCD13CDCE13CECF13CF04701F
:070BFA00F030D5DE020C4EC5
:100FC30033DA929E35B16011377FE5FE392184898A
:100FD3003AAEC3FF3C1D955B3D6358473E75FDF03C
:100FE3003F3172183F800000C2D5020A9C020A9268
:100FF300BD80FA50F3020A99ED33EC330460F17BC0
:101003003B7AAA79B8783F120800ED33EC3392D5D6
:10101300247B5011A2D570DB500BED448024045087
:1010230004A2D580CEEFFBEEFAEDF9ECF8120BCA71
:10103300EFF582F404FC120A29120AC8C082900F49
:10104300C37409120C10ED33CC33D0F092D525F0D4
:0A105300A2D57001C313CC13FD22D7
:100C7C003E9248DA3ECCCCCD3F2AAAAB40000000D5
:100C8C003F8000003F9837F03FB504F33FD744FC5A
:100C9C003E3172173EB172173F0515913EDE5BD99E
:100CAC00D2008002C200EDD2E7F8CD33EC330470F1
:100CBC000BBD800592D5020A9C020A9240FBD3140C
:100CCC0060F2F5F07C3FEE7A00C39496C8948B40AA
:100CDC00230AC89469C8941A401A0AC89468C8941C
:100CEC001F40110AC8945AC89425400805F07A0090
:100CFC00CDC2E7CDC0F08C1B8D1C8E1D8F1EEA2340
:100D0C0023C0E0248CF582E4340CF583120C6C12B5
:100D1C000AC8ECC0E0EDC0E0EEC0E0EFC0E0120CA1
:100D2C005CA81BA91CAA1DAB1E120AC4D0E0FBD0E8
:100D3C00E0FAD0E0F9D0E0B2E7F81209098C1B8D8B
:100D4C001C8E1D8F1E900C7C7403120C01A81BA909
:100D5C001CAA1DAB1E120800D0E0600F2498F5826F
:100D6C00E4340CF583120C6C120AC88C1B8D1C8E8F
:100D7C001D8F1ED0E0C3947FFDE49400FC120A2466
:100D8C007B187A727931783F120800A81BA91CAA2B
:100D9C001DAB1E120AC830000B7BD97A5B79DE784A
:050DAC003E12080022C8
:100C0100C0E0EFFBEEFAEDF9ECF8120800D0E0F5E8
:100C1100F0EFFBEEFAEDF9ECF8120C5CA3A3A3A341
:100C2100E8C0E0E9C0E0EAC0E0EBC0E0C0F01208D3
:100C310000120C6CA3A3A3A3120AC8D0F0D0E0FB4E
:0D0C4100D0E0FAD0E0F9D0E0F8D5F0D422F0
:0300000002106D7E
:0C106D00787FE4F6D8FD758120020EC8E3
:0E0C4E00C3E49FFFE49EFEE49DFDE49CFC22B7
:100C5C00E493FC740193FD740293FE740393FF22DE
:100C6C00E493F8740193F9740293FA740393FB22DE
:00000001FF
